:020000040800F2
:10000000780D00200D020008F9070008E705000838
:10001000F5070008890400088314000800000000A8
:10002000000000000000000000000000490D000872
:100030008D04000800000000D90B00085D0E0008C8
:1000400027020008270200082702000827020008EC
:1000500027020008270200082702000827020008DC
:1000600027020008270200082702000827020008CC
:1000700027020008270200082702000827020008BC
:1000800027020008270200082702000827020008AC
:10009000270200082702000827020008270200089C
:1000A000270200082702000827020008270200088C
:1000B00027020008C10E0008210F000827020008CF
:1000C000270200082702000827020008270200086C
:1000D000270200082D120008270200082702000846
:1000E000270200082702000827020008270200084C
:1000F000270200082702000827020008270200083C
:10010000270200082702000827020008270200082B
:10011000270200082702000827020008270200081B
:10012000270200082702000827020008270200080B
:1001300000F002F800F05AF80AA090E8000C82449F
:100140008344AAF10107DA4501D100F04FF8AFF27C
:10015000090EBAE80F0013F0010F18BFFB1A43F0A5
:100160000103184784230000A42300000A444FF031
:10017000000C10F8013B13F0070408BF10F8014B06
:100180001D1108BF10F8015B641E05D010F8016B4B
:10019000641E01F8016BF9D113F0080F1EBF10F8AF
:1001A000014BAD1C0C1B09D16D1E58BF01F801CBD2
:1001B000FAD505E014F8016B01F8016B6D1EF9D555
:1001C0009142D6D37047000000230024002500266A
:1001D000103A28BF78C1FBD8520728BF30C148BFAA
:1001E0000B6070471FB51FBD10B510BD00F033F890
:1001F0001146FFF7F7FF01F0D3F900F051F803B40F
:10020000FFF7F2FF03BC01F04CF9000009488047FA
:1002100009480047FEE7FEE7FEE7FEE7FEE7FEE7E8
:10022000FEE7FEE7FEE7FEE704480549054A064B00
:1002300070470000610E00083101000878070020B7
:10024000780D002078090020780900207047704759
:10025000704770477047754600F02CF8AE460500B1
:100260006946534620F00700854618B020B5FFF7D1
:10027000DBFFBDE820404FF000064FF000074FF0D5
:1002800000084FF0000B21F00701AC46ACE8C009B4
:10029000ACE8C009ACE8C009ACE8C0098D467047BD
:1002A00010B50446AFF300802046BDE81040FFF7CC
:1002B000A6BF0000004870471407002021B18268E3
:1002C00042F00102826003E0826822F00102826053
:1002D0007047000010B504461248844208D101213D
:1002E000401500F0B7FC0021601500F0B3FC17E0EA
:1002F0000D48844208D10121001500F0ABFC00211B
:10030000201500F0A7FC0BE00848844208D1012129
:10031000C80300F09FFC00214FF4004000F09AFC5D
:1003200010BD00000024014000280140003C0140B5
:10033000014600208A6802F004020AB1012000E0B0
:10034000002070470146C86C80B27047014600200B
:100350008A6802F008020AB1012000E0002070471C
:1003600030B502460020002350680F4C20400D7924
:100370000C6844EA05242043506090680B4C2040F0
:10038000D1E902542C434D7944EA4504204390605E
:10039000D06A20F470000C7C641EE4B2234340EA6F
:1003A0000350D06230BD0000FFFEF0FFFDF7F1FF0B
:1003B000816841F0080181607047816841F0040163
:1003C0008160704700B587B001214FF4017000F0E3
:1003D00031FC4FF4004000F001FC0220ADF80400B5
:1003E00000208DF8070001A9174800F050F81748C1
:1003F000FFF770FF002002908DF80C008DF80D00C3
:100400004FF4602004900020059001208DF8180022
:1004100002A90E48FFF7A4FF01210C48FFF74EFF89
:100420000A48FFF7C5FF00BF0848FFF78FFF002805
:10043000FAD10648FFF7C1FF00BF0448FFF778FF75
:100440000028FAD107B000BD000801400024014097
:1004500008B50121102000F0EDFB4FF40050ADF87D
:10046000000010208DF8030003208DF8020069467B
:10047000044800F00CF84FF40051024800F092F8E4
:1004800008BD00000010014000BFFEE770472DE9E5
:10049000F04102460025002600200023002400270A
:1004A00091F803C00CF00F0591F803C00CF0100C8C
:1004B000BCF1000F03D091F802C04CEA050591F899
:1004C00000C0BCF1000F31D0146800202BE04FF0C9
:1004D000010C0CFA00F3B1F800C00CEA03069E42CE
:1004E00020D183004FF00F0C0CFA03F7BC4305FA40
:1004F00003FC4CEA040491F803C0BCF1280F06D1B8
:100500004FF0010C0CFA00FCC2F814C00AE091F89C
:1005100003C0BCF1480F05D14FF0010C0CFA00FCF0
:10052000C2F810C0401C0828D1D31460B1F800C034
:10053000BCF1FF0F34DD546800202EE000F1080C00
:100540004FF0010808FA0CF3B1F800C00CEA0306FA
:100550009E4221D183004FF00F0C0CFA03F7BC43ED
:1005600005FA03FC4CEA040491F803C0BCF1280F1F
:1005700005D100F1080C08FA0CF8C2F8148091F8C3
:1005800003C0BCF1480F07D100F1080C4FF001087F
:1005900008FA0CF8C2F81080401C0828CED354602A
:1005A000BDE8F0814161704710B504460148FFF78E
:1005B000C9FE10BD002401402DE9F04107460C465C
:1005C0000025002608E03846FFF7EEFF0544052029
:1005D00000F0ACFF701CC6B2A642F4DBB5FBF4F031
:1005E00080B2BDE8F08100BFFEE700001FB5012129
:1005F000082000F01FFB4FF40060ADF8000003205E
:100600008DF8020010208DF8030069461F48FFF79F
:100610003EFF4FF400611D48FFF7C4FF4FF48060B8
:10062000ADF8000004208DF8030069461748FFF775
:100630002EFF4FF480611548FFF7B4FF012104201D
:1006400000F0D8FA124800F091FC40F2E730ADF823
:1006500008004720ADF804000020ADF80A00ADF80E
:10066000060001A90A4800F08FFD0121084800F0AA
:100670006BFC01221146064800F07DFD00F07CFF76
:100680000021034800F066FC1FBD0000000C014083
:100690000008004070B50246002400250023002019
:1006A000958A138B1B0445EA030626F07F4404EA6F
:1006B00001068E4201D1012000E0002070BD21B171
:1006C000028842F48072028004E002884FF6FF63E1
:1006D0001A400280704721B1028842F40072028001
:1006E00004E002884FF6FF531A40028070470CB5B1
:1006F0000246002000230193009300920B0F019308
:1007000021F07F41019B1BB1009B1433009303E058
:10071000090C009B18330093009B1B680B400BB126
:10072000012000E000200CBD12B141F0010102E007
:100730004FF6FE7319400182704701827047000036
:1007400070B504460D4600BF4FF400311C48FFF75A
:10075000CEFF0028F8D101211948FFF7B0FF00BFF4
:1007600018491748FFF796FF0028F9D00022782192
:100770001348FFF7D9FF00BF13491148FFF78AFF5D
:100780000028F9D021460E48FFF7D7FF00BF0E49D9
:10079000891C0B48FFF77EFF0028F8D0294608483F
:1007A000FFF7CBFF00BF0849891C0548FFF772FF20
:1007B0000028F8D001210248FFF78DFF70BD00002E
:1007C00000540040010003008200070008B5012129
:1007D000082000F02FFA4FF47040ADF800004820D8
:1007E0008DF8030069460248FFF751FE08BD00007E
:1007F000000C014000BFFEE77047000070B500210B
:1008000000230F22C47804B3154C246804F4E06478
:10081000C4F5E064210AC1F10403CA40447804FA33
:1008200003F184781440214309010E4C0678A15548
:10083000047804F01F050124AC4005786D11AD006B
:1008400005F1E025C5F8004109E0047804F01F0532
:100850000124AC40044D0678761145F8264070BD61
:100860000CED00E000E400E080E100E0024901431B
:10087000024A1160704700000000FA050CED00E02C
:1008800010B5002000F001F810BD70B50646002438
:1008900015E004F1B001C8B200F0F5FD002000F051
:1008A000F2FD102000F0EFFD002504E0304600F0DE
:1008B000F1FD681CC5B2802DF8DB601CC4B2082CA9
:1008C000E7DB70BD10B5642000F030FEAE2000F014
:1008D000DAFD202000F0D7FD102000F0D4FDB0207C
:1008E00000F0D1FDC82000F0CEFD002000F0CBFDCF
:1008F000102000F0C8FD402000F0C5FD812000F070
:10090000C2FDFF2000F0BFFDA12000F0BCFDA6202D
:1009100000F0B9FDA82000F0B6FD3F2000F0B3FDC7
:10092000A42000F0B0FDD32000F0ADFD002000F0C9
:10093000AAFDD52000F0A7FDF02000F0A4FDD920ED
:1009400000F0A1FD222000F09EFDDA2000F09BFDCA
:10095000122000F098FDDB2000F095FD202000F033
:1009600092FD8D2000F08FFD142000F08CFDAF2053
:1009700000F089FD10BD10B504220021084600F0EA
:1009800057F805220021232000F052F8062200210A
:10099000462000F04DF807220021692000F048F8B9
:1009A00002221146002000F043F803220221142005
:1009B00000F03EF800220421104600F039F8012230
:1009C0000421142000F034F808220221502000F005
:1009D0002FF80A220221642000F02AF80D220421B7
:1009E000502000F025F80C220421642000F020F8AB
:1009F0000E220621002000F01BF80F2206211420F1
:100A000000F016F810BD70B504460D4605F1B001B2
:100A1000C8B200F038FD102141EA141000F033FD97
:100A200004F00F0141F0010000F02DFD70BD000049
:100A30002DE9F04180460E46174600247D013146DF
:100A40004046FFF7E0FF00BF06E00D49485D00F0BB
:100A500021FD6D1C601CC4B2102CF6DB701CC1B2F1
:100A60004046FFF7D0FF002406E00549485D00F04E
:100A700011FD6D1C601CC4B2102CF6DBBDE8F081CA
:100A80001C0000202DE9F04107460E469046002547
:100A90000024A8F12000C5B27F2F02DD0027B01C82
:100AA000C6B231463846FFF7AEFF002407E004EB3C
:100AB00005110E4A505C00F0EDFC601CC4B2082C1D
:100AC000F5DB701CC1B23846FFF79DFF002408E03B
:100AD00004EB05110831054A505C00F0DBFC601C9A
:100AE000C4B2082CF4DBBDE8F0810000F81E000859
:100AF0002DE9FF5F074691461D460E9E4FF0000A06
:100B0000002433E0281B401EC1B20A2000F028FE5A
:100B1000B9FBF0F00A21B0FBF1F201FB1208BAF1C7
:100B2000000F13D1681EA04210DDB8F1000F0BD1E9
:100B3000B34606EBDB71491001FB0471C8B22022F9
:100B40000199FFF79FFF0FE04FF0010AB34606EB54
:100B5000DB71491001FB0471C8B208F13001CAB25F
:100B60000199FFF78FFF00BF601CC4B2AC42C9DB24
:100B7000BDE8FF9F2DE9FF4F81B0064617461D4691
:100B8000DDF838A0002422E04FF001094FF0000802
:100B900005E009EB89004FEA400908F10108281B2C
:100BA000401E4045F5DCB7FBF9F00A21B0FBF1F23D
:100BB00001FB120B04EB840106EB4101C8B20123D7
:100BC0005A46CDF800A00299FFF792FF641CAC4290
:100BD000DADB05B0BDE8F08F704700000146002069
:100BE000034A506820F440400843506070470000BA
:100BF0000010024029B1064AD2690243044BDA616F
:100C000004E0034AD2698243014BDA617047000075
:100C10000010024029B1064A12690243044B1A61CE
:100C200004E0034A12698243014B1A6170470000D5
:100C30000010024029B1064A92690243044B9A61AE
:100C400004E0034A92698243014B9A6170470000B5
:100C50000010024029B1064AD2680243044BDA6010
:100C600004E0034AD2688243014BDA607047000017
:100C70000010024030B500210022002400232D4D39
:100C80006D6805F00C0121B1042905D0082923D194
:100C900005E0294D056022E0274D05601FE0254D48
:100CA0006D6805F47012234D6D6805F480340225DB
:100CB00005EB92421CB9214D554305600BE01D4DDB
:100CC0006D6805F400351DB11C4D5543056002E00B
:100CD000194D5543056002E0174D056000BF00BF88
:100CE000144D6D6805F0F0010909154D6B5C056840
:100CF000DD4045600F4D6D6805F4E061090A104D57
:100D00006B5C4568DD4085600A4D6D6805F4605197
:100D1000C90A0B4D6B5C4568DD40C560054D6D68CB
:100D200005F44041890B074D6B5CC568B5FBF3F5D5
:100D3000056130BD0010024000127A0000093D003C
:100D40003706002047060020704710B500F002F873
:100D500010BD00000CB500200190009033480068E1
:100D600040F480303149086000BF3048006800F42A
:100D7000003000900198401C0190009818B901982B
:100D8000B0F5A06FF1D12948006800F4003010B12F
:100D90000120009001E0002000900098012843D13C
:100DA0002348006840F010002149086008460068A8
:100DB00020F0030008600846006840F00200086068
:100DC0001A48406819494860084640684860084623
:100DD000406840F4806048600846406820F47C1019
:100DE00048600846406840F4E810486008460068DB
:100DF00040F08070086000BF0C48006800F0007090
:100E00000028F9D00948406820F0030007494860ED
:100E10000846406840F00200486000BF0348406850
:100E200000F00C000828F9D10CBD000000100240B1
:100E300000200240042808D14FF0E021096941F068
:100E400004014FF0E022116107E04FF0E021096951
:100E500021F004014FF0E02211617047704700005B
:100E600010B51348006840F00100114908600846B9
:100E70004068104908400E494860084600680E491D
:100E800008400B4908600846006820F4802008608C
:100E90000846406820F4FE0048604FF41F00886058
:100EA000FFF753FF4FF000600449086010BD0000D9
:100EB000001002400000FFF8FFFFF6FE08ED00E022
:100EC00010B50121124800F045F9F8B10121104890
:100ED00000F03DF80F480068401C0E4908600846C5
:100EE00000683C2806D1002008600B480068401CC0
:100EF00009490860084800683C2807D1074800688D
:100F0000401C0649086000200349086010BD00002D
:100F100000040040200600202406002028060020AF
:100F200010B50121064800F015F940B1012104482F
:100F300000F00DF803480088401C0249088010BDED
:100F4000000800401C060020CA4302827047CA43C2
:100F50000282704721B1028842F00102028004E05F
:100F600002884FF6FE731A400280704710B504469F
:100F70006848844208D10121C014FFF76BFE0021AC
:100F8000E014FFF767FEC4E0B4F1804F08D10121FF
:100F90000846FFF73FFE00210120FFF73BFEB8E0C7
:100FA0005D48844208D101210220FFF733FE002171
:100FB0000220FFF72FFEACE05848844208D10121FF
:100FC0000420FFF727FE00210420FFF723FEA0E006
:100FD0005348844208D101210820FFF71BFE00215D
:100FE0000820FFF717FE94E04E48844208D1012103
:100FF0001020FFF70FFE00211020FFF70BFE88E006
:101000004948844208D101212020FFF703FE002136
:101010002020FFF7FFFD7CE04448844208D10121F5
:101020004014FFF717FE00216014FFF713FE70E075
:101030003F48844209D10121C804FFF70BFE00217B
:101040004FF40020FFF706FE63E03A48844209D1DE
:1010500001210805FFF7FEFD00214FF48010FFF786
:10106000F9FD56E03448844209D101214805FFF7D3
:10107000F1FD00214FF40010FFF7ECFD49E02F488F
:10108000844208D101214020FFF7C4FD0021402007
:10109000FFF7C0FD3DE02A48844208D101218020AD
:1010A000FFF7B8FD00218020FFF7B4FD31E02548AF
:1010B000844208D101218015FFF7ACFD0021A01565
:1010C000FFF7A8FD25E02048844209D1012108044A
:1010D000FFF7C0FD00214FF48030FFF7BBFD18E0A3
:1010E0001A48844209D101214804FFF7B3FD0021C9
:1010F0004FF40030FFF7AEFD0BE01548844208D1F5
:1011000001218804FFF7A6FD00214FF48020FFF79E
:10111000A1FD10BD002C014000040040000800406B
:10112000000C00400010004000140040003401405A
:10113000004C0140005001400054014000180040A4
:10114000001C0040002000400040014000440140DD
:101150000048014030B50246002000230024158AD3
:1011600005EA0103958905EA010413B10CB10120D8
:1011700000E0002030BD1AB183890B43838102E077
:1011800083898B4383817047002202881D4B9842DC
:101190000ED01D4B98420BD0B0F1804F08D01B4BA6
:1011A000984205D01A4B984202D01A4B984204D16B
:1011B0004FF68F731A404B881A43174B984207D04B
:1011C000164B984204D04FF6FF431A40CB881A437F
:1011D00002808B8883850B8803850A4B98420BD04D
:1011E000094B984208D00E4B984205D00D4B9842BF
:1011F00002D00D4B984201D10B7A038601238382E2
:1012000070470000002C0140003401400004004001
:1012100000080040000C0040001000400014004096
:1012200000400140004401400048014010B540F238
:101230002551214800F061F800283BD01E4800F0FD
:1012400017F91E4908701E48008800F4004088BB4A
:101250001B48008800F4804070B1084600780A28D6
:1012600003D000201649088024E01548008840F487
:101270000040134908801DE0104800780D2806D171
:101280000F48008840F480400D49088012E00B4868
:1012900000780B490988C1F30D010A4A50540848E7
:1012A0000088401C0649088008460088C72801DDE0
:1012B0000020088010BD00000038014036060020E4
:1012C000340600204C06002021B1828942F40052ED
:1012D000828104E082894DF6FF731A408281704753
:1012E00002460020B1F5007F00D100BF13880B40FB
:1012F0000BB1012000E00020704770B502460024C9
:1013000000230025002040F66A16B14200D100BF3C
:10131000C1F3421501F01F03012606FA03F3012D64
:1013200002D19689334006E0022D02D1168A33405D
:1013300001E0968A33400C12012606FA04F416885E
:10134000344013B10CB1012000E0002070BDF0B5B5
:101350000346002400260025002040F66A17B94203
:1013600000D100BF1846C1F3421401F01F06012747
:1013700007FA06F5012C01D10C3004E0022C01D152
:10138000103000E014301AB107682F43076002E004
:101390000768AF430760F0BD2DE9F04786B005460A
:1013A0000E460024A24600BFA1460027B08900B126
:1013B00000BF2F462C8A4CF6FF700440F08804438F
:1013C0002C82AC894EF6F3100440B0883189084372
:1013D000718908430443AC81AC8A4FF6FF40044056
:1013E000B0890443AC8201A8FFF744FC1F48874240
:1013F00002D1DDF810A001E0DDF80CA0A88900F40E
:10140000004040B10AEBCA0000EB0A103168490005
:10141000B0FBF1F807E00AEBCA0000EB0A103168F4
:101420008900B0FBF1F86420B8FBF0F0040120095A
:10143000642101FB1089A88900F4004040B13220EA
:1014400000EBC900B0FBF1F000F00700044308E036
:10145000322000EB09106421B0FBF1F000F00F0026
:1014600004432C8106B0BDE8F0870000003801403D
:1014700001468888C0F308007047C1F308028280E3
:10148000704700BFFEE710B5044621460020FFF775
:1014900057F910BD10B5044621464020FFF750F91A
:1014A00010BD014600BF704710B500200C49086010
:1014B0004FF4967000F03AF800240EE0012008493D
:1014C0000860642000F032F800200649C1F8B40139
:1014D0004FF4967000F02AF8641C032CEEDB10BD6C
:1014E000B40122420000224210B56FF00400FFF761
:1014F000A1FC0A4800680A49B0FBF1F009490870EC
:101500000846007800EB4001C1EBC0104FF6FF71B8
:1015100001EAC0000449088010BD00000800002056
:1015200000127A002C0600202E0600200146114AE7
:1015300012884A434FF0E0235A6100229A611A460A
:10154000126942F001021A6100BF4FF0E0221069F7
:1015500000F001021AB100F48032002AF5D04FF0F9
:10156000E022126922F001024FF0E0231A6100220A
:101570009A6170472E06002008B54FF4A060FFF76F
:1015800075F91E208DF8000000208DF801008DF8FF
:10159000020001208DF803006846FFF72FF908BD0F
:1015A0001CB50020019000BF00BF00BF00BF00BFFE
:1015B00000BF00BFFFF798FF4FF4A060FFF756F998
:1015C000FEF746FFFFF702F9FEF7FCFE4FF4165058
:1015D00000F0D2F8FFF70AF8FFF774F9FF20FFF7E1
:1015E00054F90220FFF7A2FF0020FFF74EF9022076
:1015F000FFF79CFF6420FFF799FFFFF741F9FFF722
:1016000053FFFFF7B8F900204C4908604C490860C7
:101610004C49086091E00A210120FEF7CDFF044605
:1016200000F076FA484908600846006800F024FA9D
:1016300006464FF06632454B00F020F9044600F0B4
:10164000EBF84349086043494148006800F074FAE8
:101650003D4908600846006800F03AFA0446012057
:1016600004232246022100902820FFF783FA32202B
:10167000FFF75CFF3848007801281AD100BF00202E
:10168000354908704F213548FFF7F7FE00BF40216C
:101690003248FFF725FE0128F9D14B212F48FFF7EB
:1016A000ECFE00BF40212D48FFF71AFE0128F9D1BA
:1016B0001DE029480078022819D100BF00202649E2
:1016C00008704F212548FFF7D8FE00BF402123486E
:1016D000FFF706FE0128F9D14B212048FFF7CDFE88
:1016E00000BF40211D48FFF7FBFD0128F9D1012073
:1016F000022300901348062102682820FFF73AFAD7
:101700003A2206213C20FFF7BDF901200223009078
:101710000B48062102684620FFF72CFA3A220621E0
:101720005A20FFF7AFF90120022300900348062159
:1017300002686420FFF71EFA00BF6CE72006002055
:1017400024060020280600200000002066664A3F8C
:101750000400002000007A443606002000380140D2
:1017600010B50246012000E050430B1EA1F1010418
:10177000E1B2F9D110BD000010B586B004460121D8
:1017800044F20400FFF756FA4FF40070ADF814006D
:1017900003208DF8160018208DF8170005A91C48A5
:1017A000FEF775FE4FF48060ADF8140004208DF84C
:1017B000170005A91648FEF76AFE25208DF80000DF
:1017C00003208DF801008DF8020001208DF8030040
:1017D0006846FFF713F801940020ADF80800ADF853
:1017E0000A00ADF80C00ADF810000C20ADF80E00AA
:1017F00001A90848FFF7D0FD012240F22551054814
:10180000FFF7A5FD01210348FFF75EFD06B010BDFF
:10181000000801400038014021F00042A2F160526E
:10182000B2F5801F01F0004328BFD2F17F6C0BD9C5
:101830005FEA001C43EAC20242EB507018BF7047D7
:1018400028BF20F001007047B2F5801FBCBF1846CA
:1018500070474FEA410C1CF5001F02D2084600F009
:1018600032BA70B500F0B4F800000089FFF7F6BF97
:101870004FF00040A0F5800070470000DFF848C13D
:1018800070B51CEA111E1EBF1CEA13159EEA0C0F50
:1018900095EA0C0F00F06F8081EA030423EA4C13F1
:1018A0004EEAD47E21EA4C1141F4801143F48013B6
:1018B000AE44A1FB024CA0FB0365AEF17F7E36195E
:1018C00055EB0C05A1FB034C4CF10003A0FB021CE3
:1018D00016EB0C06654153F10003094218BF46F0B0
:1018E000010613F4007F0BD14FEA03314FEA0530B4
:1018F000340341EA155140EA16506FF003020AE042
:101900004FEAC3214FEAC520F40241EA555140EAAB
:1019100056506FF0020202EB2E4201EB025585EAAF
:10192000CE710AD05FEA440C18BF24F0004450F195
:10193000000041F1000120EAD47040F2FE7C6245D3
:1019400000D270BDA84214BF4FF080444FF0404415
:10195000002E08BF0024BEF1806FA8BFA1F1C041D6
:10196000BDE8704080F282804FF0000001F1C0417C
:1019700001F0004170479EEA0C0F0CEA131518BFE6
:1019800095EA0C0F06D04FF0000081EA030E0EF02E
:10199000004170BD00F01CF88900013E00F007B85E
:1019A00000F009B84FEA430C5FEA5C5C08D081EABA
:1019B000030100F05BB84FEA410C5FEA5C5CF6D1D2
:1019C0004FF00000014970470000FF070000F87F5A
:1019D0000EF1020E2EF0030E5EF8046B364205D4B3
:1019E000012A43EB030515F5001F12D8012841EB2E
:1019F000010C1CF5001F0CD80ED14FEAD17C15F557
:101A0000001F0CEB4C0C0CF1020C08BF4CEBD37C10
:101A100004E04FF0080C01E04FEAD37C0CEB4C05DE
:101A200026FA05F606F00706B6F1040C06D20EEB10
:101A3000860CBDE870404CF0010C6047DFE80CF00C
:101A4000090B02024FF000414FF00000A1F5002108
:101A500070BD19461046012851EB010418BFD4F59A
:101A6000001484BF002001F0004170BD0808A0F5FB
:101A700000114FEA3101704743004FEAD30C4FEA9F
:101A80003C0C43401FBF40070CF1605113F0FE4F68
:101A900070471CF0006F03D100200CF0004170472C
:101AA0000CF0004343EA507010B540EACC0000F05F
:101AB000C4F800BF000000924FEA0001FFF7D6BF54
:101AC0004FF000414FF00000A1F5002170470000E9
:101AD000C10DD1F19E0206DB4FEA002343F0004323
:101AE00023FA02F07047004207D54FEA4001B1F1F6
:101AF000FE4F02D24FF00000704710B500F09DF885
:101B000049922480002070476FEA2000704700004F
:101B1000B0FA80F310FA03F2C3F19D030AD0D9059D
:101B200001EB1220530638BF704700F1010008BFD7
:101B300020F00100704700004FF47F0C1CEAD01227
:101B40001EBF1CEAD11392EA0C0F93EA0C0F00F0AF
:101B5000478090EA010F48BF42F480724FF0004C7A
:101B60004CEA00204CEA012102EB0302A0FB011326
:101B7000A2F50002002918BF43F001035B0028BF53
:101B80004FEA330342EB22425FEA132C4CEBC25084
:101B90002EBFBCEB436FB2F57C0F70474FEA036C6E
:101BA000BCF1004F08BF20F00100B2F57C0F38BF38
:101BB00070470BD582F0FF0212F5803FC8BF704717
:101BC00000F1C040D8BF00F00040704700F5000CA5
:101BD0005FEA4C0C48BF7047B0F1C04000F073B8EA
:101BE00090EA010F0CEAD11348BF42F480726245BB
:101BF00038BF634504D280EA010000F0004070471E
:101C000010B500F01AF800BF8900013E00F007B8D7
:101C100000F009B85FEA410C5FEA1C6C08D080EA6A
:101C2000010000F050B85FEA400C5FEA1C6CF6D18E
:101C30004FF00040A0F5800070470EF1020E2EF02C
:101C4000030E5EF8044B244204D44FEA4102B2F181
:101C50007F4F11D84FEA4003B3F17F4F0CD80ED11C
:101C60004FEAD07CB2F17F4F0CEB4C0C0CF1020C24
:101C700008BF4CEBD17C04E04FF0080C01E04FEAC8
:101C8000D17C0CEB4C0324FA03F404F00704B4F108
:101C9000040C06D20EEB840CBDE810404CF0010C95
:101CA0006047DFE80CF0070802024FF00040A0F5A3
:101CB000800010BD0846420018BFD2F1807288BF74
:101CC00000F0004010BDFF2141EAD050C005704730
:101CD0000000000000000000002F000000000700CE
:101CE000070000147F147F1400242A7F2A12006248
:101CF00064081323003649552250000005030000F4
:101D000000001C224100000041221C000014083E7B
:101D100008140008083E0808000000A06000000841
:101D20000808080800006060000000201008040295
:101D3000003E5149453E0000427F40000042615153
:101D40004946002141454B31001814127F100027ED
:101D500045454539003C4A494930000171090503B0
:101D600000364949493600064949291E00003636E1
:101D70000000000056360000000814224100001444
:101D80001414141400004122140800020151090621
:101D900000324959513E007C1211127C007F4949A2
:101DA0004936003E41414122007F4141221C007FD3
:101DB00049494941007F09090901003E4149497AE1
:101DC000007F0808087F0000417F4100002040415B
:101DD0003F01007F08142241007F40404040007FC7
:101DE000020C027F007F0408107F003E4141413E0B
:101DF000007F09090906003E4151215E007F091953
:101E000029460046494949310001017F0101003F4F
:101E10004040403F001F2040201F003F4038403FCF
:101E20000063140814630007087008070061514933
:101E3000454300007F41410000552A552A550000C6
:101E400041417F0000040201020400404040404044
:101E5000000001020400002054545478007F4844DC
:101E6000443800384444442000384444487F003813
:101E70005454541800087E0901020018A4A4A47C3C
:101E8000007F080404780000447D40000040808406
:101E90007D00007F102844000000417F4000007C4E
:101EA00004180478007C080404780038444444385A
:101EB00000FC242424180018242418FC007C0804A6
:101EC000040800485454542000043F444020003C7F
:101ED0004040207C001C2040201C003C4030403C06
:101EE000004428102844001CA0A0A07C0044645496
:101EF0004C441414141414140000000000000000DA
:101F00000000000000000000000000F800000000D9
:101F1000000000333000000000100C06100C06001A
:101F2000000000000000000040C07840C078400081
:101F3000043F04043F040400007088FC08300000E3
:101F4000001820FF211E0000F008F000E01800003B
:101F500000211C031E211E0000F0088870000000F4
:101F60001E2123241927211010160E000000000046
:101F70000000000000000000000000E01804020063
:101F8000000000071820400000020418E0000000D4
:101F90000040201807000000404080F080404000D2
:101FA0000202010F01020200000000F00000000028
:101FB0000101011F010101000000000000000000FC
:101FC00080B0700000000000000000000000000071
:101FD00000010101010101010000000000000000FA
:101FE0000030300000000000000000008060180495
:101FF000006018060100000000E010080810E00072
:10200000000F102020100F00001010F8000000003A
:102010000020203F20200000007008080888700081
:102020000030282422213000003008888848300001
:102030000018202020110E000000C02010F8000021
:1020400000070424243F240000F8088888080800BA
:102050000019212020110E0000E0108888180000CF
:10206000000F112020110E0000380808C8380800A1
:102070000000003F00000000007088080888700021
:10208000001C222121221C0000E010080810E000A2
:102090000000312222110F00000000C0C00000002B
:1020A0000000003030000000000000800000000050
:1020B0000000806000000000000080402010080048
:1020C0000001020408102000404040404040400011
:1020D00004040404040404000008102040800000EC
:1020E0000020100804020100007048080808F000F1
:1020F0000000003036010000C030C828E810E000C1
:102100000718272423140B000000C038E00000004B
:10211000203C23020227382008F8888888700000B5
:10212000203F202020110E00C03008080808380089
:10213000071820202010080008F808080810E00000
:10214000203F202020100F0008F88888E8081000A1
:10215000203F20202320180008F88888E808100075
:10216000203F200003000000C030080808380000AD
:1021700007182020221E020008F808000008F808AE
:10218000203F210101213F20000808F80808000035
:102190000020203F2020000000000808F808080068
:1021A000C08080807F00000008F888C028180800E0
:1021B000203F20012638200008F808000000000019
:1021C000203F20202020300008F8F800F8F8080010
:1021D000203F003F003F200008F830C00008F8080A
:1021E000203F200007183F00E01008080810E0001A
:1021F0000F10202020100F0008F808080808F00031
:10220000203F210101010000E01008080810E00053
:102210000F18242438504F0008F8888888887000E8
:10222000203F2000030C3020007088080808380088
:102230000038202121221C00180808F8080818007E
:102240000000203F2000000008F808000008F808FF
:10225000001F202020201F000878880000C83808B0
:10226000000007380E010000F80800F80008F80028
:10227000033C0700073C03000818688080681808C2
:1022800020302C03032C30200838C800C838080040
:102290000000203F2000000010080808C83808008F
:1022A0002038262120201800000000FE0202020033
:1022B0000000007F40404000000C30C000000000E3
:1022C000000000010638C00000020202FE0000000B
:1022D000004040407F0000000000040202020400B1
:1022E00000000000000000000000000000000000EE
:1022F00080808080808080800002020400000000D6
:1023000000000000000000000000808080800000CD
:102310000019242222223F2008F8008080000000BB
:10232000003F112020110E0000000080808000007E
:10233000000E112020201100000000808088F8008D
:10234000000E112020103F200000808080800000BF
:10235000001F222222221300008080F08888881823
:102360000020203F2020000000008080808080002E
:10237000006B94949493600008F8008080800000C3
:10238000203F210000203F2000809898000000009E
:102390000020203F202000000000008098980000CE
:1023A00000C08080807F000008F8000080808000EE
:1023B000203F24022D302000000808F80000000013
:1023C0000020203F202000008080808080808000CE
:1023D000203F20003F20003F808000808080000060
:1023E000203F210000203F200000808080800000EE
:1023F000001F202020201F0080800080800000001F
:1024000080FFA12020110E0000000080808080004D
:10241000000E112020A0FF8080808000808080003E
:1024200020203F212000010000008080808080006B
:102430000033242424241900008080E080800000E0
:102440000000001F2020000080800000008080002D
:10245000001F202020103F2080808000008080808E
:1024600000010E300806010080800080008080801E
:102470000F300C030C300F00008080008080800043
:102480000020312E0E31200080808000008080806E
:1024900080818E701806010000808080808080001E
:1024A0000021302C2221300000000000807C02023C
:1024B00000000000003F404000000000FF0000005E
:1024C00000000000FF0000000002027C800000000D
:1024D0000040403F00000000000601010202040429
:1024E0000000000000000000082500080000002097
:1024F0004C0600006C010008882700084C060020EC
:102500002C070000C80100089184A24A0430090188
:1025100002030406070809157848C87856F84848A1
:1025200048C816203E203F22463F24242427500C32
:1025300008E888D8A8ACA8D888E808600C3E021241
:102540001A16131A3202223E480C808890A080FC92
:1025500080A09088804034100807553F2020381410
:10256000C848784F80BCA4E4A4BC201A23393F2774
:1025700024243F24346017504CC878C84855F88844
:1025800088F8580A02013E2A2A2B2A2A2A5F1610A6
:10259000D85450D8663C50484460153F05253F4DFF
:1025A0001F2824225F211B40601D5F404040506077
:1025B000C0224A1101623F12E04809FC402008088D
:1025C00008F808C21620180708305B20201F1F10CB
:1025D00090D0705C500153D0101A01622901196625
:1025E00059E01901199F8A88E01304036B1F20E04A
:1025F0004149BB498E1520100C0376030C10204076
:102600001EE0202030282F72E04B7F49015A7F6066
:1026100015909090804D40F84040BF580B1816110F
:10262000141840300F4040811119212B90F0816126
:102630001F04040444447F0643040415F01010F002
:102640001A40014AF87119FE19395C024C406011B8
:102650001DC810C048015BC808A6127F1B1F1201CD
:102660004A5F21100A03050911FF118905C312E011
:102670007AF0C9073D4428FF11AA44700B83013842
:10268000448292927401831E7C44C7017D019905A6
:1026900062FF9A0102818A010B013669419949FA68
:1026A0000101A12A4001212A6D01212A6001791529
:1026B00001642ADB010915072ADA01212AD8012140
:1026C0002AC0010915072A800101352A06010918C7
:1026D000071CE66620076A86157A861C2A8601187A
:1026E0000A80808686068686C0C00C0E1C0606D030
:1026F00030764D2907013113601C12FE13010210C0
:1027000009C41820029E63B20E1DFF8181FFF244AE
:1027100040300F12FF180923EAAABFAAEA033F0BB1
:10272000012DBC808080080115240E0C082A0101AF
:102730003149041D81808081021901B917061101F8
:1027400001090C0E0A14C0012178081E21404050D6
:10275000215E08012A4DFFFFC1C10409232D081580
:102760001F80FCF3EFF3FC80FF80EEEEEEF5FBFF45
:102770009CBEB6B6883A2D01020304041009060770
:0827800008090204060800002C
:040000050800020DE0
:00000001FF
